:020000040800F2
:10000000501F0020410200083B3F0008913A0008C1
:10001000393F0008E5160008B5460008000000005A
:10002000000000000000000000000000A90100081E
:100030008918000800000000ED0100087D4100085B
:100040005B0200085B0200085B0200085B0200081C
:100050005B0200085B0200085B0200085B0200080C
:100060005B0200085B0200085B0200085B020008FC
:100070005B0200085B0200085B0200085B020008EC
:100080005B0200085B0200085B0200085B020008DC
:100090005B0200085B0200085B0200085B020008CC
:1000A000194200083D42000831420008254200087C
:1000B0005B02000849420008554200085B02000844
:1000C0005B0200085B0200085B0200085B0200089C
:1000D0005B0200085B0200085B0200085B0200088C
:1000E0005B0200085B0200085B02000800F002F8F7
:1000F00000F04AF80AA090E8000C82448344AAF178
:100100000107DA4501D100F03FF8AFF2090EBAE875
:100110000F0013F0010F18BFFB1A43F0010318473B
:1001200080680000A0680000103A24BF78C878C139
:10013000FAD8520724BF30C830C144BF04680C60ED
:10014000704700000023002400250026103A28BF35
:1001500078C1FBD8520728BF30C148BF0B60704739
:10016000662906F03983642900F0A08000207047DA
:100170001FB500F003FD04000020002106F0FEF989
:10018000E0601FBD10B510BD00F0F8FD1146FFF78F
:10019000EFFF04F0BBFC00F016FE03B4FFF7F2FF24
:1001A00003BC00F059FE0000224B19680868B0E853
:1001B000F00F80F30988BFF36F8F4FF0000080F3DA
:1001C00011884EF00D0E70470000000006480068D0
:1001D000006880F3088862B661B6BFF34F8FBFF343
:1001E0006F8F00DF00BF00BF08ED00E0EFF3098074
:1001F000BFF36F8F0F4B1A6820E9F00F106008B53E
:100200004FF0BF0080F31188BFF34F8FBFF36F8FA4
:1002100005F01AFC4FF0000080F31188BDE808409B
:1002200019680868B0E8F00F80F30988BFF36F8F92
:10023000704700BF80000020EFF30580704700008A
:100240000948804709480047FEE7FEE7FEE7FEE76A
:10025000FEE7FEE7FEE7FEE7FEE7FEE704480549A6
:10026000054A064B7047000017420008ED000008E1
:1002700050190020501F0020501B0020501B002050
:100280000FB41CB5084B06AA7B446946009005983C
:1002900000F029FC04460020694600F037FC2046A7
:1002A0001CBC5DF814FB0000810800002DE9F04142
:1002B0000646002410687529314616A510D0AFF304
:1002C0000080002802DA404213A507E031688A075F
:1002D00001D512A502E0490704D511A5012401E0CA
:1002E000AFF3008000210A2206F1240709E0B0FBE9
:1002F000F2FCB0FBF2F302FB1C00303078541846DD
:10030000491C0028F3D123462A463046BDE8F04177
:1003100000F07CB9000000002D0000002B00000060
:10032000200000002DE9F05F894604464FF0000AE6
:10033000DFF874B1FB44C0F820A02046E16888478C
:10034000002874D0252806D0D4E901219047206ADE
:10035000401C2062F1E700265F462046E16888479E
:100360002028054607DB312D05D2781910F8200C1E
:1003700008B10643F1E7B00701D526F00406C4F83A
:100380001CA00027C4F818A02A2D09D0284604F084
:10039000B6F938B304EB8708303DC8F8185019E0B7
:1003A00059F8041B204604EB87029161E1688847F5
:1003B000012F054618D1E069002820DA26F0200632
:1003C0001DE0D8F8180000EB800005EB4000303845
:1003D000C8F818002046E1688847054604F08FF900
:1003E0000028EED1012F0AD02E2D08D12046E16839
:1003F00088477F1C0546022F46F02006C4DBA06913
:10040000002803DA404246F00106A061F00701D05F
:1004100026F010066C2D0BD0682D09D04C2D39D04C
:100420006A2D35D0742D35D07A2D33D016E038E0D2
:10043000E1682F4620468847B842054609D16C2F0F
:1004400026D04FF48060E168064320468847054681
:1004500004E06C2F1AD04FF4807006430DB3A5F161
:100460004100192802D8203546F400664A4629463C
:10047000204626604E46FFF773FE80B101280BD060
:10048000F61D26F0070000F1080956E74020E4E7D2
:100490008020D8E70020D6E706F104094DE728467A
:1004A00052E7206ABDE8F09FC065000010B5431C0C
:1004B00002E010F8011B71B18107FAD14FF001324F
:1004C00002C88C1A8C4314EAC211F9D0C01A0A0669
:1004D00003D0C01E10BDC01A10BD0A0401D0801E7A
:1004E00010BD0902FCD0401E10BD032A40F230802E
:1004F00010F0030C00F0158011F8013BBCF1020F65
:10050000624498BF11F801CB00F8013B38BF11F8E5
:10051000013BA2F1040298BF00F801CB38BF00F8FC
:10052000013B11F0030300F0F682083AC0F00880A6
:1005300051F8043B083A51F804CBA0E80810F5E75D
:10054000121D5CBF51F8043B40F8043BAFF3008040
:10055000D20724BF11F8013B11F801CB48BF11F8B5
:10056000012B24BF00F8013B00F801CB48BF00F885
:10057000012B70474FF000020429C0F0128010F0E8
:10058000030C00F01B80CCF1040CBCF1020F18BF6F
:1005900000F8012BA8BF20F8022BA1EB0C0100F002
:1005A0000DB85FEAC17C24BF00F8012B00F8012BD5
:1005B00048BF00F8012B70474FF0000200B513460A
:1005C00094469646203922BFA0E80C50A0E80C5073
:1005D000B1F12001BFF4F7AF090728BFA0E80C5024
:1005E00048BF0CC05DF804EB890028BF40F8042B1D
:1005F00008BF704748BF20F8022B11F0804F18BF8A
:1006000000F8012B70477047704770472DE9F0479D
:100610000D4699469246044600F124080168880672
:1006200004D5E06921F01001216000E00120A8421A
:1006300001DD471B00E00027A1697A1902EB0900E0
:10064000081AA0612078C00602D42046AFF30080CB
:10065000002608E0D4E901211AF806009047206A34
:10066000401C761C20624E45F4DB2078C0060AD57B
:100670002046AFF3008006E0D4E901213020904706
:10068000206A401C2062381EA7F10107F4DC07E055
:10069000D4E9012118F805009047206A401C206227
:1006A000281EA5F10105F3DC2046AFF30080207879
:1006B000000602D50220BDE8F0870120FBE7704765
:1006C0002DE9FF4F0C461E464FF0FF378BB0D2E9A5
:1006D0000001DDF860800A908A46C1F30A5505B929
:1006E0003D46002108464FF00000BAF1000F00F42B
:1006F000400005DA00EB80004FF4400101EA5000B1
:100700004FEA9059B9F1010F00DDB9460A9850EA55
:100710004A000ED044F61050A5F2FF3545432F1481
:10072000B8F1000F1ED07542291E1EDDC9F100026E
:100730001CE0B8F1010F4FF0000001D0302103E0C0
:10074000F24305E02154401CB042FBDB304600225E
:10075000002121540B99C1F80880C1E900200FB095
:10076000BDE8F08FBD1B6D1CDEE74A4600DA69422A
:1007700006A800F08DFA06AB93E8070003AB83E808
:10078000070050460A9900F06EFB8DE80700A0F5BF
:1007900000501F3800900398002D0ADD42F21F011F
:1007A0004A460844002303A90390684600F0D7FD99
:1007B00009E0A0F500504A461F38002303A9039022
:1007C000684600F0E1FD8DE807000004000C03D04E
:1007D0004FF0FF30410800E01046B8F1000F03D0A1
:1007E0000022009215461EE0751E05D400F0CAF9DD
:1007F000303262556D1EF9D5B3460122084302D04E
:1008000000227F1C04E02078302801D100227F1EC6
:10081000002A099784D01DE0112D07DA00F0B2F903
:10082000303262556D1C50EA0102F5D1084302D006
:100830000098C8B10EE00021681E05E0235C625CF0
:1008400063542254401E491C8142F7DBAB46A81B6F
:10085000401E0990002004F80B000B98099AC0F87C
:100860000880C0E9002B7AE711264FF0000857E70F
:100870002DE9F04F88460446D21D22F0070191B0C1
:10088000D1E90001CDE90A0103F015FF02460B98FA
:10089000C00F01D02D2007E02068810701D52B2053
:1008A00002E0202101EAC000032A099001D0072AB2
:1008B00005DB03464146204600F0AAF90BE120780B
:1008C000800601D5E06900E00620B8F1650F814699
:1008D00006D0B8F1660F18D0B8F1670F70D131E0CB
:1008E0000020B9F1110F009001DB112301E009F1A3
:1008F00001030AAA01A90CA8FFF7E2FEDDE90C70CA
:10090000002609F10105834647E001204B4600908F
:100910004FF000470AAA01A90CA8FFF7D1FEDDE9B4
:100920000DB00C995D46002610B909F101000D18B3
:10093000B9EB050003D4C0F1FF3609F10105A5EBC1
:1009400009002BE0B9F1010F01DA4FF00109002095
:10095000B9F1110F0090484601DD112300E0034674
:100960000AAA01A90CA8FFF7ABFEDDE90C704D4601
:1009700000268346207800070AD4AB4500DA5D469E
:1009800001A8012D04DD411911F8011C302907D0FF
:100990004F4502DA17F1040F04DA012082460FE016
:1009A0006D1EEEE7002F02DCED1B3E4403E0781CD9
:1009B000A84200DD7D1CB81B00F1010A4FF0004782
:1009C0002078000703D4AA4501DB4FF0FF3A00214D
:1009D000B7F1004F0DF143088DF8431024D00220E9
:1009E0002B23002F01DA7F422D230A21021EA0F1C2
:1009F000010000DC5FB197FBF1FC97FBF1F201FB1A
:100A00001C7C17460CF1300C08F801CDEEE7A8F17C
:100A1000010003702188090501D5452100E0652109
:100A2000A0F1010800F8011C09980FA9A1EB080723
:100A3000FF1D00B10120411901EBEA70A1693844A2
:100A4000081A401EA0612078C00602D42046AFF3E9
:100A50000080099828B1D4E901219047206A401C00
:100A600020622078C00622D52046AFF300801EE029
:100A7000002E04DBB34502DD01A8805D00E03020DC
:100A8000D4E901219047206A401C2062761CAAF11B
:100A900001005FEA000A0AD100F070F8C06801683E
:100AA000405CD4E901219047206A401C2062281E46
:100AB000A5F10105DCDC07E0D4E9012118F8010B00
:100AC0009047206A401C2062381EA7F10107F3DC22
:100AD0002046AFF30080032011B041E601694A1CB3
:100AE00002610878704700B58FB0CDE9013100216F
:100AF000059105497944CDE9031011466846FFF791
:100B000011FC0FB000BD0000E5FFFFFF0A6802F80E
:100B1000010B0A60704710B5203AC0F00B80B1E8B5
:100B20001850203AA0E81850B1E81850A0E8185022
:100B3000BFF4F5AF5FEA027C24BFB1E81850A0E82B
:100B4000185044BF18C918C0BDE810405FEA827C45
:100B500024BF51F8043B40F8043B08BF7047D2075C
:100B600028BF31F8023B48BF11F8012B28BF20F8FD
:100B7000023B48BF00F8012B704700000048704757
:100B80001019002030B5B0F10A024FEA900E71F151
:100B900000034EEA817EB0EB0E0061EB91014FEA5B
:100BA000101E4EEA017E10EB0E0041EB11114FEAD0
:100BB000102E4EEA016E10EB0E0041EB11214FEAB0
:100BC000104E4EEA014E10EB0E0041EB1141401861
:100BD00041F100014FEAD00040EA41704FEAD101F3
:100BE00010EB80054FEA810444EA907444EB010461
:100BF0006D1944EB0404521BA3414FF0000348BF9E
:100C00000A3200D530BD401C41F1000130BD00006A
:100C10002DE9F0411F46044603260168072A01F426
:100C2000006004DB08B116A505E016A503E008B1D5
:100C300015A500E015A521F010002060A069C01ED8
:100C4000A0610FB1401EA0612046AFF300804FB1FC
:100C5000D4E9012138469047206A401C2062C01C1C
:100C6000206206E0206AFAE7D4E9012115F8010BB9
:100C70009047761EF8D22046AFF30080BDE8F081A1
:100C80004E414E006E616E00494E4600696E660030
:100C90002DE9F047814616468AB0354878440DC89C
:100CA0008DE80D0032487844801C03AC0DC884E800
:100CB0000D0041F69B300844372190FBF1F290FB88
:100CC000F1F5A5F1800501FB12041B3C02D564423D
:100CD000012000E00020DFF898A080460027FA44B9
:100CE000AAF1BE0A0EE0E0070AD03246684607EBDA
:100CF000470101230AEB810100F046FB8DE8070064
:100D000064107F1C002CEED1194F7F44AE3F19E0D8
:100D1000E80715D007EB04100DF1180A90E80E0053
:100D20008AE80E00C068F04201D198190890324656
:100D3000012306A903A800F027FB03AB83E8070003
:100D40006D10641C002DE3D14FF00103324669465B
:100D5000B8F1000F03A802D000F001FB01E000F0A1
:100D600013FBC9E90001C9F808200AB0BDE8F08703
:100D7000E85C000000487047F01800207546FFF757
:100D8000F9FFAE4605006946534620F00700854648
:100D900018B020B5FFF762FABDE820404FF000061A
:100DA0004FF000074FF000084FF0000B21F0070153
:100DB000AC46ACE8C009ACE8C009ACE8C009ACE896
:100DC000C0098D46704710B50446AFF30080204639
:100DD000BDE81040FFF7E1B94FF0013C50F8042B9B
:100DE00051F8043B9A4221D1A2EB0C03934313EA3E
:100DF000CC1317D150F8042B51F8043B9A4215D16B
:100E0000A2EB0C03934313EACC130BD150F8042B41
:100E100051F8043B9A4209D1A2EB0C03934313EA25
:100E2000CC13DBD04FF00000704700BFD01A01BADE
:100E3000B1FA81F101F0180122FA01F0CB40C1F1C1
:100E40002001DBB2C0B2C01A2CFA01F3D11A9143CF
:100E500011EAC311E6D1704701491820ABBEFEE785
:100E60002600020070475FEA400C08BF91F0000FB7
:100E70004FEA8C234FEAC12243EA51514FEA1C50FA
:100E800018BF00F5F0404FEA300018BF41F00041B4
:100E90005FEA6C5C00F02980BCF1FF3F08BF40F0C6
:100EA00080407047130C06BF12044FF0100C4FF037
:100EB000000C130E04BF12020CF1080C130F04BF38
:100EC00012010CF1040C930F04BF92000CF1020C00
:100ED000D30F04BF52000CF1010C11464FF0000279
:100EE000A0F11F00A0EB0C00704711F0004F08BFED
:100EF000704731F000413FF4D5AF0B0C06BF090439
:100F00004FF0100C4FF0000C0B0E04BF09020CF157
:100F1000080C0B0F04BF09010CF1040C8B0F04BF6C
:100F200089000CF1020CCB0F04BF49000CF1010C3D
:100F3000CCF12003A0EB0C0022FA03F302FA0CF22E
:100F400041EA030100F10100704720F07F4C80EA84
:100F5000030023F07F47ACEB070303F57C5300F05D
:100F6000004003F1FF032DE980494FEA154B09B416
:100F70004FEA144325EA0B4E24EA03480FF20426F5
:100F800006EB132749083E785FEA320203FB066747
:100F9000C7F5000707FB06F64FEA54374FEAD64677
:100FA00006F1020607FB066CCCF1005C4FEA1C4719
:100FB0002CEA074C07FB06F40CFB06F504EB154680
:100FC0004FEA961634BF00204FF000404FEAD13769
:100FD00006FB07FC4FEA1C4C0CFB0BF7D21B03FB78
:100FE0000CF761EB07010CFB0EF7B0EB074072EB5F
:100FF00017420CFB08F734BFA2EB0742B2EB0742E3
:1010000061EB17414FEA0C444FEA910706FB07FCDE
:101010004FEA1C4C0CFB0BF7B0EBC74072EB57329E
:1010200003FB0CF734BFA2EBC742B2EBC74261EB44
:1010300057310CFB0EF7B0EBC70072EB57720CFB8D
:1010400008F734BFA2EBC702B2EBC70261EB5771DE
:10105000039F4FEA816141EA921104EBCC044FEA0D
:10106000D1374FEA826206FB07FC42EA90124FEA50
:1010700080604FEA1C4C0CFB0BF7D21B03FB0CF7F8
:1010800061EB07010CFB0EF7B0EB074072EB174268
:101090000CFB08F734BFA2EB0742B2EB074261EB4F
:1010A00017414FEA8C554FEA910704EB9C2406FB4D
:1010B00007FC4FEA1C4C0CFB0BF7B0EBC74072EB84
:1010C000573203FB0CF734BFA2EBC742B2EBC74267
:1010D00061EB57310CFB0EF7B0EBC70072EB5772A8
:1010E0000CFB08F734BFA2EBC702B2EBC70261EBFF
:1010F000577115EB4C254FEA816141EA92114FEA95
:1011000082624FEAD13742EA901206FB07FC44F1B3
:1011100000044FEA80604FEA1C4C0CFB0BF7D21B1B
:1011200003FB0CF761EB07010CFB0EF7B0EB07407C
:1011300072EB17420CFB08F734BFA2EB0742B2EB8D
:10114000074261EB174115EB1C154FEA813141EA6B
:1011500092414FEA823242EA90424FEA80304FEAAF
:101160000C7644F1000448EA03434EEA0B484FF082
:10117000000EB2EB080C71EB030724BF6246394640
:101180004EEB0E0E4FF0000B0018524149414BEB55
:101190000B0BB2EB080C71EB03077BF1000B24BFC8
:1011A000624639464EEB0E0E4FF0000B00185241CE
:1011B00049414BEB0B0BB2EB080C71EB03077BF1D6
:1011C000000B24BF624639464EEB0E0E51EA020771
:1011D00018BF46F0010616EB0E7655F1000254F1E9
:1011E000000103D5BDE88901BDE80088BDE889019B
:1011F000BDE80048B619524141EB0101A3F10103DA
:10120000704780807F7E7D7C7B7A79787776767573
:101210007473727171706F6E6E6D6C6C6B6A6A69EB
:101220006868676666656464636362616160605F85
:101230005F5E5E5D5D5C5C5B5B5A5A5959585857FE
:101240005756565555555454535352525251515066
:1012500050504F4F4F4E4E4D4D4D4C4C4C4B4B4BB9
:101260004A4A4A49494948484847474747464646FF
:10127000454545444444444343434342424242413A
:101280004141002B9C4630D477002BD01CB54FEA4F
:10129000370703B44FF010004FF01001BAF1000F00
:1012A00006D0BCF1000FDCBF40F0080040F00801A0
:1012B0004FF000000FBCBDE810400BF1010BBBF17B
:1012C000010F08BF5FEA170722BF12F1010211F1F7
:1012D00001014FF0004143F1000300F0004043EAF8
:1012E00000007047F9D35708D0E746EA064613F1E5
:1012F000400F4FEA16461FDD13F1200FDFBF1643E4
:101300000A46002120335B42BED0C3F1200746EAE3
:10131000064602FA07F74FEA164646EA0706C3F101
:10132000200722FA03F201FA07F721FA03F14FF03E
:10133000000342EA0702A7E746EA020646EA064633
:101340004FEA164646EA0106BCBF46EA0646360C98
:101350004FF000034FF000024FF0000194E72DE939
:10136000804C9A46934670B491E8380007C831EA39
:10137000400C48BF34EA430C03D5FFF7E6FDFFF706
:1013800080FFF0BCBDE8008C2DE9804C9A46934666
:1013900070B491E8380007C810F0804F08BF13F010
:1013A000804F03D100F005F8FFF76BFFF0BCBDE8FC
:1013B000008C20F07F4780EA030023F07F4C07EB8E
:1013C0000C03A3F57C5300F00040A3F1FE0392F060
:1013D000000F00F0B38095F0000F00F077802DE94A
:1013E00001494FEA11404FEA144621EA004800FB48
:1013F00006FC24EA064708FB06F607FB08F800FB94
:1014000007F718EB06484CEB164C4FEA124B18EB5B
:1014100007484FEA15464CEB174022EA0B4E0BFBF0
:1014200006FC25EA06470EFB06F607FB0EFE0BFB45
:1014300007F71EEB064E4CEB164C4FF000061EEB6A
:10144000074E4CEB174B18EB0B0840F1000018EB64
:101450000E0B58EB000840F100008F1A4FF000010E
:101460003CBFC943661B14BFB5EB040C00213CBF55
:10147000C943F61B4FEA17444EEA8E0E27EA04458D
:101480004FEA1C4704FB07622CEA074C05FB07F7F1
:101490000CFB05F604FB0CFC16EB074642EB17426F
:1014A00016EB0C4642EB1C421BEB060658EB020205
:1014B000414146EA9E0601D5BDE80189B61952416F
:1014C00041EB0101A3F10103BDE801894FEA144595
:1014D0004FEA114724EA054621EA074C05FB07F4C9
:1014E00006FB07F70CFB06F105FB0CFC11EB0741B3
:1014F00044EB17444FEA124711EB0C4144EB1C44F8
:1015000022EA074C05FB07F206FB07F70CFB06F681
:1015100005FB0CFC16EB074642EB174216EB0C469C
:1015200042EB1C456A1854F1000148BF7047B619D8
:10153000524141EB0101A3F10103704795F0000F07
:1015400037D04FEA11424FEA144721EA024624EA13
:10155000074C02FB07F106FB07F70CFB06F402FB46
:101560000CFC14EB074441EB17414FEA154714EB11
:101570000C4441EB1C4125EA074C02FB07F506FB36
:1015800007F70CFB06F602FB0CFC16EB074645EBD7
:10159000174516EB0C4645EB1C42121951F10001A0
:1015A00048BF7047B619524141EB0101A3F1010355
:1015B00070474FEA14454FEA114724EA054621EAED
:1015C000074C05FB07F106FB07F70CFB06F24FF093
:1015D000000605FB0CFC12EB074241EB174112EB36
:1015E0000C4251EB1C4148BF7047921841EB01017E
:1015F000A3F10103704770B5044600688168C943D0
:10160000C90716D1816821F00101816000F09EFCBC
:10161000054609E000F09AFC401B022804D9206826
:101620008068C043C00706D020688068C043C007F8
:10163000F0D0002070BDA06A40F01000A062E06A07
:1016400040F00100E062012070BD0000F8B5002606
:101650000446009600688168C943C9072CD0816898
:1016600041F001018160154815490068B0FBF1F0B7
:1016700000E0401E00900028FBD100F067FC05460A
:1016800015E000F063FC401B022810D92068806838
:10169000C043C0070BD0A06A40F01000A062E06A0F
:1016A00040F00100E06284F824600120F8BD206869
:1016B0008068C043C007E4D10020F8BD5C00002072
:1016C00040420F0000228021014800F03ABC000097
:1016D0000008014001228021014800F032BC0000D6
:1016E00000080140FEE7000010B5044600F072FF5C
:1016F0000349B0FBF1F06043401EFDD210BD000075
:1017000000093D002DE9F04186B0804600200090A0
:101710000190039005904020494E012702906424D7
:1017200002A90497304600F019FB06E00120FFF7FC
:10173000DBFF641E2404240C07D04021304600F057
:10174000F3FB0128F2D03C240AE0032006B0BDE8F8
:10175000F0810120FFF7C8FF641E2404240C61D02F
:101760004021304600F0E0FB0028F2D03C2406E0A7
:101770000120FFF7B9FF641E2404240C52D040213D
:10178000304600F0D1FB0128F2D000241E2506E0EF
:101790006D1E2D042D0C45D00120FFF7A5FF402123
:1017A000304600F0C1FB0028F2D01E20FFF79CFF5E
:1017B0004021304600F0B8FB01281ED1E01704EBB1
:1017C0005070694601EBE00120F00700201A0A780A
:1017D000C0F1070007FA00F002430A70642506E032
:1017E0006D1E2D042D0C1DD00120FFF77DFF402123
:1017F000304600F099FB0128F2D0641C282CC5DB90
:101800009DF800009DF801109DF802209DF803301E
:1018100001441A4411449DF80420C9B28A4203D0FD
:10182000022093E7012091E704F0F6FEC8F80400D7
:101830009DF8020004F0F0FEC8F80000002085E7E3
:10184000000801401FB54020009001200221CDE991
:1018500002010C4C01906946204600F07FFA0022FC
:101860004021204600F06DFB122000F065FA0122B5
:101870004021204600F065FB1E20FFF735FF04B035
:10188000002010BD00080140704772B6FEE700005E
:10189000F8B50023009390F824201C46012A12D0AA
:1018A000012280F824204A681F26072A0DD20568E5
:1018B0006F6B521E02EB82029640B7430E68964051
:1018C00037436F6319E00220F8BD05680D2A0AD27C
:1018D0002F6BD21F02EB82029640B7430E689640F0
:1018E00037432F6309E0EF6A0D3A02EB820296401C
:1018F000B7430E6896403743EF620A6807260568CB
:101900000A2A0AD3EF680A3A02EB42029640B7432A
:101910008E6896403743EF6008E02F6902EB420281
:101920009640B7438E68964037432F610A68102A65
:1019300001D0112A20D1124D0268AA4217D1956810
:101940002D0219D4956845F40005956009681029A1
:1019500012D10C490C4A0968B1FBF2F101EB81018B
:10196000490000E0491E00910029FBD104E0816A92
:1019700041F020018162012380F824401846F8BD1F
:10198000002401405C00002040420F000068C06C51
:10199000704700002DE9F0414FF000060400354685
:1019A0007DD0A06A002728B9E76284F82470204619
:1019B00000F07EF82046FFF71EFEA16AC90600D49B
:1019C00020B1A06A40F01000A06268E0A16A21F492
:1019D000885141F00201A1626268E169237B0A43F8
:1019E00046EA43010A43A1684FF48076B14208D029
:1019F000012906D0002194F814C0BCF1010F02D0D7
:101A00000AE03146F7E7F3B1A36A43F02003A3628B
:101A1000E36A43F00103E3622368D3F804C02CF4C3
:101A2000694C4CEA010CC3F804C021688B68DFF8EC
:101A300074C003EA0C0313438B60A168B1420BD05E
:101A4000012909D00CE0DFF860C0A3690CEB433337
:101A50000B4343F40061DFE7218A0D05A5F58015EE
:101A60002168CB6A23F470032B43CB622168896819
:101A70000E4B1940914208D1E762A16A21F00201A0
:101A800041F00101A162BDE8F081A06A20F00200EE
:101A900040F01000A062E06A40F00100E062012026
:101AA000F1E70000FDF7E1FF00E0FFFFFE0E1FFF82
:101AB00000B585B000210091019102910391006869
:101AC0000E49884218D10E48816941F40071816144
:101AD000816901F400710491816941F0040181611F
:101AE0008069694600F00400049002200090032001
:101AF0000190044800F032F905B000BD0024014017
:101B000000100240000801402DE9F8434FF00008A2
:101B10000D460446CDF8008000F018FA074620680C
:101B20008168C90508D5A06A40F02000A06284F849
:101B300024800120BDE8F8834168C90503D4C06A48
:101B400010F4700F29D0022000F0C2FB3A49096856
:101B5000B1FBF0F620680169384A11424FEA62028F
:101B60004FEAA2131ED1C1684FEA621C11EA0C0FA2
:101B700018D10169114224D1C068184221D1142022
:101B800022E0681C09D025B100F0E0F9C01BA84292
:101B900003D920680068800724D520680068800782
:101BA000EFD52CE00169114202D1C168194206D07B
:101BB000026923490A4206D1C068084203D1542071
:101BC00002E0292000E0FC204643009815E0681C54
:101BD00010D025B100F0BAF9C01BA8420AD900986C
:101BE000B04207D2A06A40F00400A06284F82480CA
:101BF00003209FE70098401C0090B042E7D3216883
:101C00006FF012000860A06A40F40070A0622068C3
:101C10008068C0F3424007280CD1207B50B9A06AED
:101C200020F48070A062A06AC00403D4A06A40F0CF
:101C30000100A06200207DE75C000020244992247E
:101C40004992240070B5044690F8240001280DD074
:101C5000012084F824002046FFF7F8FC01004FF033
:101C6000000205D084F82420084670BD022070BD13
:101C7000A06A40F20123984340F48070A0621F4D97
:101C800020681F4BA84218D11E6816F4702F14D07C
:101C9000A66A46F48016A6621E68760505D5A66A71
:101CA00026F4005646F48056A662A66AF6040AD5C3
:101CB000E66A26F00606E66206E0A66A26F48016C4
:101CC000A6624668E9E7E26284F824206FF0020227
:101CD000026020688268C2F34242072A05D1A84206
:101CE00008D11A6812F4702F04D0826842F480126E
:101CF0008260B9E7826842F4A002F9E70028014057
:101D00000424014010B5044690F82400012807D0AF
:101D1000012084F824002046FFF76DFC10B107E095
:101D2000022010BDA16A21F4885141F00101A16295
:101D3000002184F8241010BD70B5044600F006F9A7
:101D40000546601C02D004480078044400F0FEF808
:101D5000401BA042FAD370BD500000202DE9F84F7F
:101D6000DFF8A4910024A9F1040B23464FF00F08DB
:101D700009F1040AABF1040EBEE00127A7403A4086
:101D8000BA4272D1DFF884C14D68A5EB0C066545F7
:101D90002BD00DDC032D34D005DC35B3012D19D04B
:101DA000022D2FD11BE0112D16D0122D2AD119E0B2
:101DB000B6F5881F19D006DCB6F5803F15D0B6F50C
:101DC000801F1FD111E0B6F5001F0ED0B6F5041F1D
:101DD00018D10AE0CB6815E0CB681B1D12E0CB6878
:101DE00008330FE0CB680C330CE08B682BB1012B70
:101DF0004FF0080303D0476104E0042302E00761C9
:101E000000E00023FF2A01D8064601E000F10406A5
:101E10004FEA840501D9A5F12005376808FA05FCC9
:101E200027EA0C0703FA05F547EA050737604D680E
:101E3000ED0060D5364DAE6946F00106AE61AD6984
:101E400024F0030605F001050095324D7719BE68B0
:101E5000A5072D0F08FA05FC26EA0C06DFF8B8C026
:101E6000604503D14FF0000C17E044E0DFF8ACC050
:101E7000604502D14FF0010C0FE0DFF8A4C06045CF
:101E800002D14FF0020C08E0DFF898C0604502D1A3
:101E90004FF0030C01E04FF0040C0CFA05FC4CEA87
:101EA000060CC7F808C04D68D9F80060ED024D4631
:101EB00001D5164300E096432E604D68DAF80060C5
:101EC000AD02554601D5164300E096432E604D689D
:101ED000DBF80060AD035D4601D5164300E0964394
:101EE0002E604D68DEF80060ED03754601D516439F
:101EF00000E096432E60641C0A6832FA04F57FF411
:101F00003CAFBDE8F88F000008040140000011104C
:101F1000001002400000014000080140000C014098
:101F200000100140001401408068084000D00120EA
:101F30007047C26821EA02030A4043EA0241016194
:101F400070470AB1016170470904FBE701488068E6
:101F5000704700005000002070B5040025D094F8B0
:101F60003D00002520B984F83C50204600F0B8F828
:101F7000242084F83D002068016821F001010160FF
:101F80002068016841F4004101602068016821F483
:101F90000041016000F024FB4D4B6168994201D87B
:101FA0004C4900E04C49884201D2012070BD4B49A8
:101FB0002268B0FBF1F1566826F03F060E435660EA
:101FC00062689A4206D94FF4967251434FF47A727E
:101FD000B1FBF2F12268491C166A26F03F06314334
:101FE00011626168994210D84900401EB0FBF1F2BD
:101FF000521CC2F30B02042A01D2042022E0B0FBDF
:10200000F1F0401CC0F30B001CE0A268F2B301EB3E
:10201000C10303EB0116431EB3FBF6F35B1C43F451
:1020200080431B0549D092B301EBC10202EB0111C1
:10203000401EB0FBF1F0401CC0F30B0040F48040A8
:1020400040F400402168CA694CF6FF739A4310437C
:10205000C861D4E9071001432068026822F0C00279
:1020600011430160D4E9030101432068826848F20A
:10207000FF339A4311438160D4E90510014320687E
:10208000C26822F0FF021143C16001E00EE016E0D9
:102090002068016841F0010101602564202084F876
:1020A0003D00256384F83E50002070BD01EB4106E1
:1020B000431EB3FBF6F35B1CB3E70120C2E701EB61
:1020C0004101401EB0FBF1F0401CC0F30B00B7E72C
:1020D000A086010080841E0000093D0040420F00E0
:1020E00010B586B000210091019102910391006822
:1020F0000F4988421AD10F4CA06940F00800A06136
:10210000A069694600F008000490C02000901220E9
:102110000190032003900848FFF720FEE06940F497
:102120000010E061E06900F40010049006B010BDFA
:102130000054004000100240000C01400248816839
:10214000027811448160704750000020074810B5A4
:10215000016841F010010160032000F0A1F80F2098
:1021600000F006F800F050F8002010BD00200240FA
:1021700030B505461F4887B0C16941F00401C1610F
:10218000C06906A900F004000590684600F002FA54
:102190000398B0B100F024FA40001749174AB0FB89
:1021A000F1F11748491E0260416040F2E732002118
:1021B000C0E903218160816100F07CFE040003D04E
:1021C00015E000F00DFAE8E70D4800F025FF0400E7
:1021D0000DD11E2000F036F8102D07D2002229461E
:1021E0001E2000F03DF80748056000E0012407B01C
:1021F000204630BD0010024040420F000008004061
:10220000E0030020540000200C4808B5816941F02B
:1022100001018161816901F001010091C16941F011
:102220008051C161C069064900F080500090486843
:1022300020F0E06040F00070486008BD00100240EF
:1022400000000140002809DB00F01F02012191403D
:102250004009800000F1E020C0F800117047000044
:10226000F0B40E4B1B68C3F30223C3F10704042C24
:1022700000D904241D1D072D01D2002300E0DB1E20
:10228000012606FA04F56D1E0D409D409E40761E07
:10229000164045EA0601F0BC02F021BA0CED00E060
:1022A000064A00F0070110684FF6FF03184040EAA5
:1022B0000120034908431060704700000CED00E066
:1022C0000000FA05014901200862704700000E4233
:1022D00010B501460020234C012922D0022939D013
:1022E00010291DD161682268D20119D51E48C1F399
:1022F0008342C903805C0AD561681B4AC1F340412F
:10230000921E515C194AB2FBF1F1484301E01849B1
:1023100048436168490203D440000321B0FBF1F057
:1023200010BD226AC2F30121012903D1920701D510
:10233000C80310BD022905D1626A920702D549F689
:10234000404010BD0329FCD121688903F9D54FF223
:10235000244010BD00F054F96168C1F38131491C7B
:102360004900DBE700100240D068000800127A0044
:1023700000093D002DE9F84304460078344FC007BA
:1023800052D0F8690025C00008D4F86940F08050A8
:10239000F861F869012500F0805000902D4801682F
:1023A000C90511D40168804641F480710160FFF7CE
:1023B000CDFD064604E0FFF7C9FD801B642822D846
:1023C000D8F80000C005F6D5386A10F4407020D067
:1023D000A18801F4407181421BD0386A1E49012254
:1023E00020F440700A6000220A603862C00710D0F2
:1023F000FFF7ACFD064641F2883807E0FFF7A6FD7F
:10240000811B414502D90320BDE8F883386A800763
:10241000F4D5386A616820F44070084338621DB111
:10242000F86920F08050F8612078800705D5786839
:10243000A16820F44040084378602078C00605D5A4
:102440007868E16820F48000084378600020DBE7CA
:102450000010024000700040400442422DE9F04765
:102460000D46040067D0DFF81881D8F8000000F0AE
:102470000700A8420CD2D8F8001021F00701294328
:10248000C8F80010D8F8000000F00700A84252D1A8
:1024900020683C4E810712D5400703D5706840F490
:1024A000E06070602078000703D5706840F46050E9
:1024B00070607068A16820F0F000084370602078B8
:1024C000C00727D06068012810D03168022810D0DA
:1024D000890700292FDA716821F003010143716037
:1024E000FFF734FD074641F288390CE03168890373
:1024F000EFE78901EDE7FFF729FDC11B494502D947
:102500000320BDE8F0877068616800F00C00B0EB54
:10251000810FF0D1D8F80010404601F00701A94220
:102520000BD9016821F0070129430160006800F020
:102530000700A84201D00120E3E72078400705D535
:102540007068E16820F4E06008437060207800075C
:1025500006D57068216920F4605040EAC1007060BF
:1025600000F05EF87168084AC1F30311515CC8407D
:102570000649086006480068FFF7FAFD0020C0E73A
:102580000020024000100240E06800085C000020CB
:10259000540000200F2202600C4A536803F003032A
:1025A0004360536803F0F0038360536803F4E0630F
:1025B000C36052684FF4E06303EAD2020261044848
:1025C000006800F00700086070470000001002403B
:1025D0000020024001480068704700005C000020B5
:1025E0000448054900684968044AC1F30221515C66
:1025F000C84070475C00002000100240F0680008EE
:102600000448054900684968044AC1F3C221515C85
:10261000C84070475C00002000100240F0680008CD
:102620000E4B59680E4801F00C02042A11D0082AFA
:102630000FD10C48C1F38342C903805C0AD55968A5
:10264000084AC1F34041921E515C054A5043B0FB19
:10265000F1F0704704494843704700000010024001
:1026600000127A00BE68000800093D002DE9F84F0D
:1026700004006FD02078BE4DC00747D06868C0F313
:102680008100012807D06868C0F38100022809D1C1
:102690006868C00306D52868800337D560680028BD
:1026A000E7D033E06068B0F5803F0BD010B1B0F5F3
:1026B000A02F11D0286820F480302860286820F4EA
:1026C000802002E0286840F480302860606888B18B
:1026D000FFF73CFC064609E0286840F480202860AB
:1026E000F0E7FFF733FC801B642873D82868800369
:1026F000F7D50BE0FFF72AFC064604E0FFF726FCBF
:10270000801B6428F1D828688003F7D42078DFF88C
:10271000648280074FF0010A4FF0000939D56868DC
:1027200010F00C0F07D06868C0F38100022809D1AF
:102730006868C00306D42868800714D5206901287A
:1027400008D110E02069B0B1C8F800A0FFF7FEFB87
:10275000064605E007E1FFF7F9FB801B0228C4D815
:1027600028688007F7D52868616920F0F80040EAFA
:10277000C10028600DE0C8F80090FFF7E7FB0646AF
:1027800004E0FFF7E3FB801B022823D828688007BA
:10279000F7D4207800072CD57748A169D9B1C0F8C3
:1027A00000A0FFF7D3FB064604E0FFF7CFFB801B3A
:1027B00002280FD8686A8007F7D570484FF4FA519D
:1027C0000068B0FBF1F0009000BF0098411E00913E
:1027D000FAD20EE07CE0C0F80090FFF7B7FB0646A7
:1027E00004E0FFF7B3FB801B022871D8686A8007FA
:1027F000F7D4207840075BD5E8690027C00008D4EB
:10280000E86940F08050E861E869012700F08050F5
:1028100000905B480168C90511D40168834641F402
:1028200080710160FFF792FB064604E0FFF78EFB24
:10283000801B64284CD8DBF80000C005F6D5E068A2
:1028400001280AD008B1052813D0286A20F0010019
:102850002862286A20F0040002E0286A40F00100A3
:102860002862E06841F2883B88B1FFF76FFB0646BB
:1028700009E0286A40F004002862EEE7FFF766FBF3
:10288000811B59455BD8286A8007F7D50BE0FFF715
:102890005DFB064604E0FFF759FB811B59454ED806
:1028A000286A8007F7D41FB1E86920F08050E861FA
:1028B000E069A8B36968C1F38101022946D0022802
:1028C000484606D0C8F86000FFF740FB044639E0F0
:1028D00035E04746C8F86000FFF738FB064604E0DD
:1028E000FFF734FB801B022829D828688001F7D421
:1028F000206AB0F5803F05D16868A16820F40030F7
:1029000008436860D4E908010843696821F4741138
:1029100008436860C7F860A0FFF718FB044605E0AD
:1029200023E0FFF713FB001B022808D8286880016A
:10293000F7D51AE0FFF70AFB001B022802D9032093
:10294000BDE8F88F28688001F4D40EE00128F7D0A4
:102950006868226A00F48031914204D1616A00F40F
:102960007010884201D00120EAE70020E8E700006B
:102970000010024000004242800442425C000020FD
:1029800000700040F8B505004FF0000016460C46F8
:10299000009006D02CB100226946284600F019F8B4
:1029A00008B10120F8BD287B2070E87BE070697BCE
:1029B0006170A97BA17056B101F0C9FAE07060782E
:1029C00001F0C5FA6070A07801F0C1FAA070002093
:1029D000F8BD2DE9F04791460C465FEA00084AD061
:1029E00084B3D8F800004068400744D4404601F062
:1029F0004BFB4FF46162B0FBF2F10546B0FBF2F025
:102A000002FB10533C20B3FBF0F36370B5FBF2F311
:102A100002FB1352B2FBF0F300FB1320A070182945
:102A200031D31820B1FBF0F6B1FBF0F200FB12102D
:102A30002070404601F021FB411C04D0A84202D97D
:102A4000471B02E017E04FF0FF37A6EB061000EB44
:102A50004000C0EB001005EBC0152946404601F0D0
:102A600062FB40B9781C01D0791900E03946404634
:102A700001F045FB10B10120BDE8F087314640462A
:102A800001F070FA00E02170B9F1000F0BD020784E
:102A900001F05DFA2070607801F059FA6070A0785A
:102AA00001F055FAA0700020E6E7000070B50400C0
:102AB00003D0607C002610B105E0012070BD2674B3
:102AC000204600F03DF802206074204600F00CF92A
:102AD000042550BB204601F09CFA30BB20684168B9
:102AE00021F007014160A06820B11448016821F07D
:102AF000010101601148001F0168A26821F46071A2
:102B0000114301606068411C04D10120FFF7E0FB24
:102B100058B1401E2268C0F303419160216880B221
:102B2000C860204601F08FFA08B16574C5E7E67306
:102B300001206073A0736074002070BD306C004091
:102B400008B50068084988420DD1FFF7BBFB07486C
:102B5000C16941F00061C161C069054900F00060D0
:102B600000900120086008BD0028004000100240CD
:102B70003C0442422DE9F0410D4604003BD0C5B370
:102B8000207C01283AD04FF0010884F81080022000
:102B90006074E87872B301F0D1F9E073687801F0FD
:102BA000CDF96073A87801F0C9F9A073C2B2617B56
:102BB000E07B01F079FA20732870204601F064FA76
:102BC0004FF46161B0FBF1F1002518292DD91822CD
:102BD000B1FBF2F1A1EB011101EB4101C1EB0111DC
:102BE00000EBC1163146204601F09DFA0427C8B912
:102BF0000BE000E004E00120BDE8F0810220FBE7EB
:102C0000E07368786073A878CFE7204601F035FA62
:102C1000411C0AD0B04208D206490144204601F0C6
:102C20006EFA10B167742574E5E784F81180257495
:102C30000020E1E7805101002DE9F0410D4604003C
:102C400024D01DB3207C012823D04FF0010884F844
:102C5000108002206074F2B1287801F06FF94FF40F
:102C6000616100FB01F6687801F068F9C0EB0010C3
:102C700006EB8006A87801F061F935182946204650
:102C800001F051FA0026042718BB10E00120BDE82E
:102C9000F0810220FBE729784FF4616041436878B6
:102CA000C0EB001001EB8000A9784518E6E720682A
:102CB000416821F005014160204601F0DEF9411C28
:102CC0000AD0A84208D207490144204601F017FA69
:102CD00010B167742674D9E784F811802674002037
:102CE000D5E700008051010070B504000AD02068CB
:102CF000416821F008014160FFF728F905464FF4CB
:102D00007A7608E0012070BDFFF720F9401BB04241
:102D100001D9032070BD206840680007F4D5002069
:102D200070BD70B5040009D0606A002540B125610E
:102D30006561A56294F8510040B10CE0012070BDBE
:102D40006068B0F5827FF4D0E561F2E784F8505016
:102D5000204600F03FF8022084F851002068016806
:102D600021F040010160A088218900F4827001F403
:102D700004410843A18901F400610843217C01F06A
:102D800002010843217D01F001010843218B01F478
:102D900000710843217F01F03801084394F82010A6
:102DA00001F080010843218D01F40051084321689E
:102DB0000860A069042101EA104021684860206889
:102DC000C16921F40061C1616565012084F8510089
:102DD000002070BD30B585B00024009401940294A9
:102DE000039400681549884225D11548C16941F40A
:102DF0008041C161C16901F480410491816941F060
:102E00000801816180690F4D00F0080004904FF4C3
:102E1000204000900220019003200390694628463C
:102E2000FEF79CFF4FF48040CDE900046946284638
:102E30000294FEF793FF05B030BD0000003800405B
:102E400000100240000C01407047704770B590F8C8
:102E50003C20012A26D0012580F83C50022280F82F
:102E60003D2002685368946823F070060B68334372
:102E700053600D4B02689A4208D0B2F1804F05D0E2
:102E80000A4B9A4202D00A4B9A4204D1496824F074
:102E900080031943916080F83D50002180F83C1078
:102EA000084670BD022070BD002C014000040040A7
:102EB0000008004010B5040003D094F83D0010B1A4
:102EC00007E0012010BD002084F83C00204600F0FF
:102ED0001FF8022084F83D00211D206801F0C0F990
:102EE000012084F8460084F83E0084F83F0084F80E
:102EF000400084F8410084F8420084F8430084F8DC
:102F0000440084F8450084F83D00002010BD000016
:102F100000B585B000210091019102910391394BD8
:102F20000268394939489A4233D18A6942F40062C9
:102F30008A618A6902F4006204928A6942F004029A
:102F40008A61896901F00401049181150091694643
:102F5000FEF704FF002204211820FFF781F9182052
:102F6000FFF770F9002204211920FFF779F91920E1
:102F7000FFF768F9002204211A20FFF771F91A20DF
:102F8000FFF760F9002204211B20FFF769F91B20DD
:102F900013E0B2F1804F14D01D4882420FD1C869AE
:102FA00040F00200C861C869002200F002000490ED
:102FB00002211D20FFF754F91D20FFF743F905B04A
:102FC00000BDCA6942F00102CA61CA6902F0010289
:102FD00004928A6942F004028A61896901F004015D
:102FE00004914FF4004100916946FEF7B7FE09498C
:102FF000486820F4407040F0E06040F48070486021
:10300000DDE70000002C01400010024000080140F4
:10301000000400400000014090F83D10012901D05B
:1030200001207047022180F83D100168CA6842F013
:103030000102CA6000680B49884208D0B0F1804F95
:1030400005D00949884202D00849884204D18168E4
:1030500001F00701062903D0016841F00101016078
:1030600000207047002C0140000400400008004090
:1030700070B5044690F83C000025012817D00126C1
:1030800084F83C60022084F83D002068826822F0C9
:10309000770222F47F4282600868502838D00DDC25
:1030A00020284FD005DC90B3102811D14AE002202F
:1030B00070BD302846D040280AD13BE060282FD090
:1030C00070280DD0B0F5805F03D0B0F5005F12D04E
:1030D000012584F83D60002084F83C00284670BD3E
:1030E000CB68D1E90121206801F003F920688168EB
:1030F00041F0770109E0CB68D1E90121206801F0B6
:10310000F8F82068816841F480418160E1E719E0C6
:10311000CA684968206801F0A7F95021206806E0D4
:10312000CA684968206801F0DDF96021206801F073
:10313000EAF8CEE7CA684968206801F095F94021AD
:103140002068F4E7226801461046F0E72DE9F041D7
:1031500000682649884247D1254C264D264F607885
:103160000026C0B101283FD10021284600F0C0FB55
:1031700080B2208129680A6A22F00A020A6229685C
:103180000A6A42F002020A626670E178F1B1BDE8B3
:10319000F04102F053B80021164800F0A9FB80B2BC
:1031A000E08029680A6A22F00A020A6229680A6A2B
:1031B0000A6201216170E1780029E8D1217840F2AA
:1031C0007122514300EB0110218906E0217840F281
:1031D0007122514300EB0110E188411AA07827F8D1
:1031E00010102670401CA070BDE8F081002C01403A
:1031F00000000020C0020020C00000202DE9F041A6
:10320000054690F83C0000260C46012810D001200D
:1032100085F83C0072B1042A1CD0082A2CD00C2A54
:1032200050D00126002085F83C003046BDE8F081F2
:103230000220FBE7D4E90012E368286801F026F9D0
:103240002868816921F00C01816128688169A26880
:1032500011430FE0D4E90012E368286801F054F943
:103260002868816921F44061816128688169A268C8
:1032700041EA02218161D5E72868D4E9002C277B47
:10328000036A016A21F480710162C16923F4007349
:1032900021F0030141EA0C0121F0F00C39074FF451
:1032A00000774CEA116107EA02221A43C161026207
:1032B0002868C16921F00C01C1612868C169A26850
:1032C00011432AE02868D4E90032E168076AD0F89F
:1032D00020C02CF4805CC0F820C0D0F81CC02CF4B6
:1032E000407C4CEA02224FF6FF7C22F470420CEA4A
:1032F0000131114327F400524FF4005707EA03331A
:103300001343C16103622868C16921F44061C1614E
:103310002868C169A26841EA0221C16182E710B54B
:10332000040003D094F83D0010B107E0012010BD67
:10333000002084F83C00204600F01EF8022084F8AB
:103340003D00211D206800F08BFF012084F846001D
:1033500084F83E0084F83F0084F8400084F841007F
:1033600084F8420084F8430084F8440084F845005F
:1033700084F83D00002010BD7047000010B50446E1
:1033800079B1042910D0082911D094F8410089B1ED
:10339000042912D0082913D094F84520012814D10B
:1033A00011E094F83E00F2E794F83F00EFE794F85C
:1033B0004000ECE794F84220F0E794F84320EDE772
:1033C00094F84420EAE7012A01D0012010BD022030
:1033D00019B3042926D0082929D084F8410084F89B
:1033E00045000122206800F077FF134920688842D9
:1033F00008D0B0F1804F05D01049884202D0104962
:10340000884204D1816801F00701062903D00168D0
:1034100041F001010160002010BD84F83E0084F8F5
:103420004200DEE784F83F0084F84300D9E784F8DF
:10343000400084F84400D4E7002C01400004004020
:103440000008004030B50446002579B1042910D0A9
:10345000082911D094F8410089B1042912D0082913
:1034600013D094F84520012814D111E094F83E00BF
:10347000F2E794F83F00EFE794F84000ECE794F8A7
:103480004220F0E794F84320EDE794F84420EAE77F
:10349000012A01D0012030BD022081B1042913D0BE
:1034A000082916D084F8410084F84500B1B10429F8
:1034B00019D0082938D00C293BD0012532E084F8F6
:1034C0003E0084F84200F1E784F83F0084F84300AE
:1034D000ECE784F8400084F84400E7E72068C2681D
:1034E00042F0020203E02068C26842F00402C260B7
:1034F0000122206800F0F0FE10492068884208D0C0
:10350000B0F1804F05D00E49884202D00D49884263
:1035100004D1816801F00701062903D0016841F058
:1035200001010160284630BD2068C26842F00802EF
:10353000DDE72068C26842F01002D8E7002C0140A5
:1035400000040040000800402DE9F04104460068F6
:10355000C66805694FF00007A90713D5B10711D553
:10356000F91E0161012020772068806980072046CC
:1035700002D0FFF7EBFD04E000F0AEF8204600F0CB
:1035800040F92777680716D5700714D521686FF0C2
:1035900004000861022020772068806910F4407FD1
:1035A000204602D0FFF7D2FD04E000F095F8204657
:1035B00000F027F92777280715D5300713D521689C
:1035C0006FF008000861042020772068C069800738
:1035D000204602D0FFF7BAFD04E000F07DF8204657
:1035E00000F00FF92777E80616D5F00614D5216804
:1035F0006FF010000861082020772068C06910F47F
:10360000407F204602D0FFF7A1FD04E000F064F8FF
:10361000204600F0F6F82777E80708D0F00706D034
:1036200021686FF001000861204600F03BF9280690
:1036300008D5300606D521686FF080000861204665
:10364000FFF702FC680608D5700606D521686FF002
:1036500040000861204600F060F9A8060AD5B006CF
:1036600008D521686FF0200008612046BDE8F041D0
:10367000FFF7EBBBBDE8F08100B585B000210091FC
:1036800001910291039100680F4988421AD10F48B5
:10369000816941F0080181618069694600F0080094
:1036A0000490302000900220019003900848FEF71B
:1036B00055FB0849486820F4406040F0E06040F461
:1036C0000060486005B000BD0004004000100240EA
:1036D000000C014000000140704770B5044690F8AE
:1036E0003C0000260D4601280FD0012084F83C0044
:1036F0006AB1042A1DD0082A2FD00C2A3FD00126F7
:10370000002084F83C00304670BD022070BD206867
:1037100000F002FE2068816941F0080181612068A3
:10372000816921F004018161206881692A6911435E
:1037300011E0206800F01CFE2068816941F40061FE
:1037400081612068816921F48061816120688169DB
:103750002A6941EA02218161D2E7206800F036FE41
:103760002068C16941F00801C1612068C16921F088
:103770000401C1612068C1692A69114311E0206810
:1037800000F050FE2068C16941F40061C161206809
:10379000C16921F48061C1612068C1692A6941EA77
:1037A0000221C161ACE710B5040003D094F83D00DC
:1037B00010B107E0012010BD002084F83C00204635
:1037C00000F01EF8022084F83D00211D206800F062
:1037D00047FD012084F8460084F83E0084F83F004D
:1037E00084F8400084F8410084F8420084F84300E3
:1037F00084F8440084F8450084F83D00002010BDA2
:103800007047704710B5044649B104290AD0082909
:103810000BD094F8410001280AD0012010BD94F883
:103820003E00F8E794F83F00F5E794F84000F2E72F
:10383000022041B3042929D008292AD084F8410064
:103840000122206800F048FD13492068884203D116
:10385000426C42F4004242642068884208D0B0F1D1
:10386000804F05D00D49884202D00D49884204D1CD
:10387000816801F00701062903D0016841F00101C8
:103880000160002010BD84F83E00D9E784F83F00B5
:10389000D6E784F84000D3E7002C01400004004044
:1038A0000008004001680D48814210D10C4B187887
:1038B000002811D10B4A1078401CC0B210700328A8
:1038C00005D100201070084A0120187010700748B8
:1038D000814201D1FEF732BC70470000002C01404C
:1038E0000300002000000020040000200008004029
:1038F0000246002041B1042909D008290AD00C2928
:1039000001D11068006C70471068406B70471068F8
:10391000806B70471068C06B7047704770B50400CB
:1039200004D094F84100002510B106E0012070BDDC
:1039300084F84050204600F023F8242084F8410009
:103940002068C16821F40051C160204600F01EFECD
:103950002068016921F4904101612068416921F0EA
:103960002A0141612068C16841F40051C160656469
:10397000202084F8410084F842006563002070BD77
:1039800030B585B00024009401940294039400683B
:103990001449884224D11448816941F480418161ED
:1039A000816901F480410491816941F004018161E0
:1039B00080690E4D00F0040004904FF400700090F8
:1039C000022001900320039069462846FEF7C6F9BD
:1039D0002815CDE90004694628460294FEF7BEF991
:1039E00005B030BD00380140001002400008014021
:1039F0002DE9F843044690F841001F4615460E464F
:103A0000202802D00220BDE8F8838EB185B10020C5
:103A10006064212084F84100FEF798FAA58481466D
:103A2000E584A0684FF02008B0F5805F02D003E085
:103A30000120E8E7206910B1354600260EE0002598
:103A40000CE08021204600F0FDFDA0B9BDB115F8C5
:103A5000010B21684860E08C401EE084E08C4B46FE
:103A60004FF0000200970028EBD14FF040012046B4
:103A700000F0E8FD40B184F841800320C3E736F848
:103A8000020BC0F30800E4E784F841800020BAE7A5
:103A9000FEE700003EB50024104800940194029413
:103AA0000D498460016001250573047505614FF4BB
:103AB00060214460C161FDF76DFF08B1FDF7E5FECF
:103AC0000095CDE9015469460448FDF7E1FE002860
:103AD00001D0FDF7DAFE3EBD00240140D0010020F8
:103AE0002DE9F04F85B000244548009401940294DC
:103AF0000394816941F010018161816901F0100135
:103B00000491816941F020018161816901F0200106
:103B10000491816941F004018161816901F004012E
:103B20000491816941F0080181618069354F00F09D
:103B300008004FF400550490002229463846FEF74D
:103B400000FADFF8C4A0002265215046FEF7F9F91B
:103B5000012280215046FEF7F4F9DFF8B0B04FF4AF
:103B60008058012241465846FEF7EBF94FF40079A0
:103B7000002249465846FEF7E4F900950226012541
:103B80000396CDE9015469463846FEF7E7F825204B
:103B9000CDE90005CDE9024669465046FEF7DEF85C
:103BA0004020009001AA1120032782E89100694675
:103BB0005046FEF7D3F88020CDE90005CDE9025646
:103BC00069465046FEF7CAF8CDE9005469465846A2
:103BD0000295FEF7C3F8CDF800800397CDE90154B4
:103BE00069465846FEF7BAF8CDF800900396CDE93D
:103BF000015469465846FEF7B1F805B0BDE8F08FAC
:103C0000001002400010014000080140000C01407B
:103C10000D4810B50B4901600C49416000214FF47B
:103C200080428160C0E9031241618161C16101622A
:103C3000FEF792F9002803D0BDE81040FDF725BE3D
:103C400010BD00000054004000020020A0860100CA
:103C50001CB500241A480094184901940160611EA3
:103C600041604FF480718160FEF720FF08B1FDF7DD
:103C70000CFE19208DF800008DF801408DF80240EF
:103C8000012269460E48FEF7D7FF08B1FDF7FDFD9A
:103C900001208DF8040006208DF8050030208DF8F5
:103CA000060026208DF80700012201A90448FEF72E
:103CB00061FF002801D0FDF7E8FD1CBD0028004091
:103CC00054020020104810B50E4901604FF4827173
:103CD0004160002102228160C0E903120122426199
:103CE000520282612022C0E90721416281620A21D9
:103CF000C162FFF716F8002803D0BDE81040FDF7B9
:103D0000C4BD10BD003800406802002010B58AB064
:103D1000002424480094019402940394049405948C
:103D20000694079408941E49099401604721C0E94C
:103D3000011442F20F71C0E903148021C0E905416A
:103D4000FFF7B8F808B1FDF7A0FD4FF480500090E0
:103D500069461448FFF78CF908B1FDF796FD114844
:103D6000FFF7DDFA08B1FDF790FD049404A90D48B2
:103D70000594FFF76BF808B1FDF787FD0220069068
:103D80000120CDE90704002206A906480994FFF79F
:103D900035FA002801D0FDF778FD0AB010BD00000B
:103DA000002C0140C002002010B58AB00024284831
:103DB0000094019402940394049405940694079447
:103DC00008944FF08041099401604721C0E9011433
:103DD0004FF6FF71C0E9031480218161FFF76AF893
:103DE00008B1FDF752FD4FF4805000906946184825
:103DF000FFF73EF908B1FDF748FD1548FFF78FFAC8
:103E000008B1FDF742FD049404A911480594FFF799
:103E10001DF808B1FDF739FD0120CDE906400894F1
:103E2000002206A90A480994FFF7E8F908B1FDF74E
:103E30002CFD022006900790042206A90448FFF7F3
:103E4000DDF9002801D0FDF720FD0AB010BD00000B
:103E50000803002010B58EB000240794089409943C
:103E60000A940B941C2168460C94FCF7A5FB23488C
:103E70002149016040F2CF21C0E9011440F2CF7125
:103E8000C0E9031480218161FFF714F808B1FDF740
:103E9000FCFC4FF48050079007A91848FFF7E8F89A
:103EA00008B1FDF7F2FC1548FFF77DFC08B1FDF7FE
:103EB000ECFC0B940BA911480C94FEF7C7FF08B15A
:103EC000FDF7E3FC6020CDE900040294002269467E
:103ED0000A480494FFF701FC08B1FDF7D6FC042260
:103EE00069460648FFF7F9FB08B1FDF7CEFC034829
:103EF000FFF7C2FB0EB010BD0004004050030020CD
:103F00000C4810B50A4901604FF4E13141600021CD
:103F100081600C22C160C0E904128161C161FFF7B8
:103F2000FDFC002803D0BDE81040FDF7AEBC10BD7D
:103F30000038014098030020FEE7FEE7010901EB8D
:103F4000810100F00F0000EB4100C0B2704700217A
:103F500002E00A38C0B2491C0A28FAD2090740EA2E
:103F6000116070472DE9F04104460025C07B627B5B
:103F7000A37B42E0012A16D0032A14D0052A12D0CE
:103F8000072A10D0082A0ED00A2A0CD00C2A0AD0F0
:103F9000042A10D0062A0ED0092A0CD00B2A0AD0E7
:103FA000022A0DD028E01F2B0CD30C2A05D10122A8
:103FB0001346401C20E01E2B04D30123521C1BE09F
:103FC0001C2B02D203F1010316E011D183B29E072C
:103FD00010D16426B3FBF6F706FB173636B94FF45B
:103FE000C876B3FBF6F706FB17331BB91D2303E0B6
:103FF0001D2B01D1032201236D1C8D42BAD3D1B2F6
:10400000E0736173DAB2A27300F04EF82073BDE87A
:10401000F08170B50546FDF799FF04464FF47A76B6
:1040200006E0FDF793FF001BB04201D9032070BDED
:10403000286840688006F4D52868416841F010017E
:104040004160002070BD70B505460068416821F0F0
:1040500010014160FDF77AFF04464FF47A7606E0DE
:10406000FDF774FF001BB04201D9032070BD286822
:1040700040688006F4D5002070BD0068016A406A7F
:1040800080B240EA01407047006881698AB2C16924
:104090008BB2816989B28A4203D0C06961F31F4043
:1040A000704743EA02407047F0B56426C1EBC10394
:1040B0000925B700072403EB01130329B3FBF5F12E
:1040C00000F5FA60114401440AD2401EB0FBF6F23A
:1040D00001EB9001B0FBF7F0891A0844001D08E0DD
:1040E000B0FBF6F201EB9001B0FBF7F0891A08443F
:1040F000801CB0FBF4F104FB1100C0B2F0BD70B540
:104100000D4606460024FFF784FF48B93168280CA5
:1041100008623168A8B248623046FFF794FF00B1E8
:104120000124204670BD70B50D4606460024FFF7F9
:1041300070FF48B93168280C88613168A8B2C8613D
:104140003046FFF780FF00B10124204670BD00001B
:1041500010B500240848FDF775FD64210648FDF7F9
:10416000D3FC18B90448FDF711FC84B20248FDF7EE
:10417000C9FD204610BD0000D001002010B501F09F
:10418000D3FF012803D0BDE8104001F041BD10BDB0
:1041900030B593B028216846FCF70EFA14210AA81E
:1041A000FCF70AFA002401210F94119405201294BF
:1041B0000090CDE9024110944FF480300190022527
:1041C0000491CDE907504FF4E01009906846FEF7DE
:1041D0004DFA08B172B6FEE70F20CDE90A054FF49B
:1041E0008060CDE90C4002210AA80E94FEF736F952
:1041F00008B172B6FEE703200F904FF48070109064
:10420000C00111900FA8FEF7B5F8002801D072B6D2
:10421000FEE713B030BD70470148FFF795B90000C5
:10422000C00200200148FFF78FB90000C002002043
:104230000148FFF789B90000C00200200148FFF7DC
:1042400083B90000C00200200148FFF77DB90000DB
:10425000500300200148FFF777B90000E003002079
:10426000F0B50268194C1A4D1A4E4FF08047A04223
:1042700005D0B84203D0A84201D0B04203D122F009
:1042800070034A681A43A04205D0B84203D0A8423E
:1042900001D0B04203D122F44073CA681A434B697B
:1042A00022F080021A4302608A68C2620A6882624F
:1042B000A04201D109690163012141610169C90776
:1042C00003D0016921F001010161F0BD002C014022
:1042D000000400400008004010B501F01F01012358
:1042E000046A8B409C430462036A8A40134303625E
:1042F00010BD10B5846842EA032224F47F440A43C7
:104300002243826010BD826822F070020A4342F0AC
:10431000070181607047000030B5026A036A23F02C
:10432000010303624368846924F073050C682C431D
:1043300022F002058A682A430C4DA84206D122F0D9
:104340000805CA6842EA050222F0040207D14D6955
:1043500023F4407345EA03058B6943EA0503436090
:10436000846149684163026230BD0000002C014055
:1043700030B5036A026A22F0100202624268846960
:104380000D6824F4E64444EA05248D6823F02003F4
:1043900043EA05130C4DA84206D1CD6823F08003F3
:1043A00043EA051323F0400307D14D6922F440622C
:1043B00042EA85028D6942EA850242608461496869
:1043C0008163036230BD0000002C014030B5026AF9
:1043D000036A23F4807303624368C46922F40072A1
:1043E00024F073050C682C438D6842EA05220C4DBD
:1043F000A84206D1CD6822F4006242EA052222F4E6
:10440000806207D14D6923F4405343EA05138D6957
:1044100043EA05134360C4614968C163026230BD69
:10442000002C014030B5046A026A22F48052026214
:104430004268C3690D6823F4E64343EA05238D68A7
:1044400024F4005444EA0534064DA84204D14D69D1
:1044500022F4804242EA85124260C36149680164E5
:10446000046230BD002C014010B5046A036A23F0D9
:1044700001030362836923F0F00343EA021324F08B
:104480000A020A438361026210BD000070B5056A2A
:10449000046A24F00104046284690F4EB04208D01B
:1044A000B0F1804F05D00D4EB04202D00C4EB0425C
:1044B00003D124F00304144301E044F001041A077B
:1044C00024F0F00444EA126225F00A0301F00A0124
:1044D00019438261016270BD002C0140000400405C
:1044E0000008004010B5036A046A24F01004046256
:1044F000846923F0A00324F4704444EA023243EABE
:1045000001118261016210BD30B5046A056A25F0AF
:1045100010050562856925F4407545EA022222F4FA
:1045200070454FF6FF7202EA033224F0A0032A43DB
:10453000A02404EA011119438261016230BD0168BF
:104540000C3151E8002F22F4907241E80023002B37
:10455000F5D10168143151E8002F22F0010241E841
:104560000023002BF5D1016B012909D101680C3121
:1045700051E8002F22F0100241E80023002BF5D172
:10458000202180F8421000210163704770B5044675
:1045900000680169E26821F4405111430161A1689A
:1045A00020690143606901432068C26841F20C63DD
:1045B0009A430A43C26020684169A26921F44071AC
:1045C000114341611E492068884202D1FEF718F864
:1045D00001E0FEF705F800EBC00101EB0011606897
:1045E00064228000B1FBF0F3B3FBF2F36FF0180626
:1045F0007343B1FBF0F5B1FBF0F605EB8305322315
:1046000003EB0515B5FBF2F5B6FBF2F605F0F00588
:1046100005EB0615B1FBF0F6B1FBF0F0B0FBF2F0E4
:104620006FF01801484306EB800003EB0010B0FB6D
:10463000F2F0216800F00F002844886070BD00008F
:10464000003801402DE9F8431F4690460D460446C8
:10465000089E23E0701C21D0FDF778FCC01BB042FF
:104660001AD8CEB12068C168490717D5802D15D05A
:10467000402D13D00168C94309070FD401680025F4
:10468000406800902046FFF75AFF0820606484F8D5
:1046900040500120BDE8F8830320FBE72068006854
:1046A00035EA000004D000204045D3D00020F1E7D7
:1046B0000120F9E7FEE7490050EAC12018BF0420B5
:1046C0004A0D18BF40F0010040F2FF72B2EB515F9B
:1046D00008BF40F00200012808BF05207047090705
:1046E000090E002804DB00F1E02080F80014704778
:1046F00000F00F0000F1E02080F8141D7047303802
:104700000A2801D20120704700207047401A00D5C6
:104710004042B0F5967F01DA0120704700207047D3
:10472000104D114C64220F49206901F097FB0128BC
:1047300014D16888012809D02888012808D0A888C1
:10474000012805D0E888012804D007E0022102E012
:10475000012100E00821606901F0B2F90A2000F0AF
:10476000FDFFDFE70A0000201400002008B56425E3
:104770000126134CDFF84C8000270095002301220E
:104780000921606901F0CEF9C10700D02670000749
:1047900005D52770002220214046FDF7D2FB207866
:1047A00020B120214046FDF7C4FB04E00022202177
:1047B0004046FDF7C6FB0A2000F0D0FFDDE7000011
:1047C000140000200008014070B53549842201F131
:1047D0008400FBF78AFE84213148FBF7CBFE0020E2
:1047E000401CC0B24228FBD92D4C42F228328434FE
:1047F00011462088FFF78AFF4FF40C76B0B360882B
:1048000041F29411FFF782FF80B300220223A4F843
:1048100084209D0734F813003146FFF777FF002806
:1048200023D05B1CDBB24FF4D26134F81300FFF7E6
:104830006DFF28B1D4F8880025FA02F108430BE097
:1048400034F813003146FFF761FF00280DD0D4F88B
:10485000880025FA02F18843521C5B1CDBB2D2B2FD
:10486000C4F88800422BD5D3012070BDFFE7208813
:104870001146FFF74BFF80B1608840F6CA01FFF791
:1048800045FF50B1A0883146FFF740FF28B134F80A
:10489000840F401C20800220E7E70020E5E70000AD
:1048A000C00000202DE9F04700287DD002287BD0F1
:1048B0005C485D4A0024B0F888005C4DC0F30721D5
:1048C000631E0126DFF86881106805F10A07682970
:1048D0006BD047DC382969D027DC022977D0102932
:1048E00066D018296FD022295ED199461946924682
:1048F00001F02CFB4B4603224EA14F48FFF778F8FE
:1049000000231A461946DAF8000001F027FA45F8A4
:104910000A4F6C60FE80D8F80000BDE8F0474349BC
:10492000002364220A3101F019BA4A296AD05A29AF
:104930006BD0622973D199461946924601F006FB65
:104940004B4603223DA13C48FFF752F800231A468C
:104950001946DAF8000001F001FA45F80A4F6C60D8
:104960007E80D8E7B02944D00ADC902938D0982935
:1049700039D0A22928D0A82951D1032230A149E059
:10498000C22927D0E02928D0E22948D199461946E2
:10499000924601F0DBFA4B4603222AA12648FFF794
:1049A00027F800231A4604E039E01FE030E00EE06B
:1049B00025E01946DAF8000001F0D0F945F80A4F71
:1049C0006C60BE80A7E717E008221FA122E0032247
:1049D00020A11FE0032220A11CE003221FA119E057
:1049E00003221FA116E003221EA113E003221EA131
:1049F00010E003221DA10DE003221DA10AE0032205
:104A00001CA107E003221CA104E003221BA101E07A
:104A100004221BA1BDE8F0470748FEF7E9BFBDE847
:104A2000F08700004401002020000020000000204A
:104A300024000020340D0A0098030020320D0A00E3
:104A4000380D0A00330D0A006365736869310D0A79
:104A500000000000350D0A00360D0A00370D0A006F
:104A6000390D0A00300D0A002A0D0A00230D0A0034
:104A70005E0D0A003C0D0A00760D0A003E0D0A008C
:104A80006F6B0D0A0000000088B04FF0FF38184D22
:104A90004FF47A794FF496764FF42F77FFF758FB5F
:104AA0000446024613A16846FBF7EAFB4146E86864
:104AB00001F04CFA6846FBF7F9FC82B264236946C0
:104AC0001148FEF795FF00231A461946E86801F0E1
:104AD00045F9484600F042FEB44201D2322004E0DB
:104AE000A4F59674BC42D9D2FA2000F09BFCD5E71D
:104AF000140000206C696768742076616C75653AF3
:104B000025640D0A00000000980300201FB5FDF782
:104B10001DFBFFF73DFBFEF7E3FFFFF7F1F9FEF7A3
:104B2000B9FFFFF7F3F8FFF793F8FFF73DF9FFF749
:104B300091F9FFF7C7F8FFF76BF800212448FEF75B
:104B400061FE04212248FEF75DFE21480024006832
:104B500084632048FEF760FA00211E48FEF772FCCD
:104B6000162003948DF80C008DF80D408DF80E4042
:104B7000002203A91848FEF75FF8029402248DF87A
:104B8000084006208DF809001E208DF80A001A2022
:104B90008DF80B00002202A90F48FDF7EBFF0F482C
:104BA0000023CDE9004080220DA1104801F08EFACB
:104BB00001280AD00E4C4FF4967501212046FDF7CE
:104BC000B8F92846FDF7B8F8F7E700F00DFFFEE763
:104BD00050030020C0020020540200202C000020BE
:104BE00073746172745F7461736B000059520008D2
:104BF000000801402DE9F0411E4D0F460446EE68C5
:104C00002868001D00F012FD38B9286890F82C10B3
:104C100001208840296981432961601C15D1A7B111
:104C200015492A68486890602B688268DA602A68AB
:104C30008368121D5A602A68121D826028684161CB
:104C40000868401C0860BDE8F08128683444B4421C
:104C50004460296805D2E86BBDE8F041091D00F009
:104C600013BDA86B091D00F00FFDA86A8442EAD2AB
:104C7000AC62E8E780000020DC1800202DE9F0415C
:104C8000044600F025FD364EB068401CB060306828
:104C9000344F10B1706940B32DE03460B068012822
:104CA00029D1002505EB850007EB800000F0DEFC34
:104CB0006D1C052DF6D32B48643000F0D7FC294835
:104CC000783000F0D3FC27488C3000F0CFFC25482A
:104CD000A03000F0CBFC2348B43000F0C7FC2148E2
:104CE0006430B0631430F06305E03068E16AC06A94
:104CF000884200D83460706A0121401C7062E06A0A
:104D0000326981401143316100EB800007EB800084
:104D10004068A0608168E1608268211D5160816007
:104D2000E06A00EB800007EB8001616157F820101A
:104D3000491C47F8201000F0D9FC706900280CD0FD
:104D40003068E16AC06A884207D207494FF0805054
:104D50000860BFF34F8FBFF36F8FBDE8F081000095
:104D6000800000202818002004ED00E030B4026C20
:104D70000B46002A0BD0C1681144C1608468A1426F
:104D800001D30168C16030BC1846FBF7AEBB30BC34
:104D900070472DE9F041856B174604460026026CEA
:104DA00082B1C7B1E068FBF7A0FBE168206C091A8B
:104DB000E1602268914202D2A168081AE060022FE5
:104DC00016D017E02068A8B9A06801F049FA064695
:104DD0000020A0600EE06068FBF787FB216C606834
:104DE00008446060A168884204D32068606001E0E4
:104DF00005B16D1E6D1CA5633046BDE8F08110B590
:104E00000446006B00F07CFC2046BDE8104000F03A
:104E100077BC00000E484FF4A051420706D0C01DD9
:104E20000B4920F00700411AC1F5A051094B00229F
:104E30000144C3E900020839143B21F0070119605D
:104E40004A600A600A1AC0E900129A605A60704704
:104E50002804002078000020134E144DA6F1A0076E
:104E60004FF08058DFF8489011E000F031FCF06816
:104E7000C468201D00F0DAFBA868401EA8606868BE
:104E8000401E686000F032FC2046FFF7B8FF6868FB
:104E90000028EAD138680128F9D9C9F80080BFF3A1
:104EA0004F8FBFF36F8FF2E7C818002080000020FB
:104EB00004ED00E02DE9F0479946DDE909648046FC
:104EC0006FF00303206B03EB8202089D104420F077
:104ED000070761B1002023180A5C83F834200A5CBC
:104EE00012B1401C1028F6D3002084F84300052D91
:104EF00000D30425E562201D656400F0C2FB04F1C7
:104F0000180000F0BEFB2461C5F105006462A061D9
:104F10004A464146384600F017F92060002E00D07E
:104F20003460BDE8F087000030B5114900E011465B
:104F30000A688242FBD34B685C18844203D1406804
:104F400018444860084643681C18944209D1084C2C
:104F5000143C2468A24209D052681A4442600A688C
:104F600012680260814200D0086030BD0460F9E739
:104F70007800002010B5044600F0AAFBA06B20B119
:104F8000002400F0B3FB204610BD0124F9E7000027
:104F90000548816B096821B1816BC9680968816224
:104FA00070474FF0FF31FAE780000020BF2080F308
:104FB0001188BFF34F8FBFF36F8FFEE703460020CA
:104FC00012B1994302D070470B42FCD001207047C8
:104FD0002DE9F041044600F07BFB94F9455004F1C3
:104FE000240609E0606A48B1304601F0D9F908B1F9
:104FF00000F022FC6D1E6DB2002DF3DC4FF0FF3689
:1050000084F8456000F072FB00F062FB94F94450B4
:1050100004F1100709E0206948B1384601F0C0F9F1
:1050200008B100F009FC6D1E6DB2002DF3DC84F8B0
:105030004460BDE8F04100F059BB000070B5044683
:10504000002500F0F9FC224E306808B9FFF7E2FEB7
:10505000CCB304F00700C0F11000C1438C4232D839
:10506000211800292FDD706881422CD8184A14328B
:105070001046046801E0224604466068884202D275
:1050800020680028F7D1306884421CD01568206859
:10509000106060680835421A102A04D9601842600E
:1050A0006160FFF741FF61687068401A7060B26824
:1050B000904200D2B06041F000406060002020606B
:1050C000F068401CF06001F0CFF9284670BD000088
:1050D000640000200449086818B10868826C521CFA
:1050E00082640868704700008000002008B5DFF87F
:1050F0005090144E4FF0FF3840F2CF770122CDF898
:10510000008000231146D9F8080000F00BFDC0070D
:1051100011D0002530688563012000F01FFB6D1C55
:10512000BD42F7D33C4630688463012000F016FB93
:10513000641EF8D1E2E7316800208863DEE70000F2
:10514000140000205003002010B5031F4FF080749E
:105150001C601B1F21F001011960191F024B0B601D
:10516000143940380A6010BDAD4F0008094C0025C5
:10517000207850B164230E2207A10B48FEF738FCBB
:10518000FFF722FBFFF78EFB2570322000F0E6FAD6
:10519000EEE70000040000204465636F646520535F
:1051A000746172740D0A0000980300208AB01D4CCF
:1051B0004FF0FF354FF47A76002208A91A48FDF720
:1051C00008FC002209A91848FDF7DCFB9DF8202007
:1051D000152A01D2082A04D80121A06800F070FC29
:1051E00003E00121A06800F051FC9DF820200FA1F0
:1051F0006846FBF745F82946E06800F0A7FE6846D8
:10520000FBF754F982B2642369460B48FEF7F0FBC2
:1052100000231A461946E06800F0A0FD304600F071
:105220009DFAC9E7140000205402002074696D65DE
:105230003A25640D0A00000098030020044800216C
:105240000171C1700170817084210248FBF792B92D
:1052500000000020C000002030B501218BB00846BE
:1052600000F0ECFC454C606000F01DFCA0600022EA
:105270000821032000F005FD206100F014FC6061AE
:10528000012000F0ECFCE0606068C8B1A068B8B133
:105290003BA102A8FAF7F4FF4FF0FF31E06800F0FD
:1052A00055FE02A8FBF702F982B2642302A937482F
:1052B000FEF79EFB00231A461946E06800F04EFDFB
:1052C00000F006FA2D4802251C30CDE900500023DD
:1052D00080222FA1314800F0F9FE28490120203119
:1052E000CDE90001002380222DA1304800F0EEFE20
:1052F000224904202C31CDE90001002380222CA179
:105300002E4800F0E3FE1D4803242430CDE9004080
:10531000002380222AA12E4800F0D8FE174800233F
:105320002830CDE9004080222AA12E4800F0CEFE90
:10533000124800233030CDE9004080222AA12D48B8
:1053400000F0C4FE0D4800233430CDE90040EC01EC
:10535000224629A12D4800F0B9FE08480023383024
:10536000CDE9005022462AA12D4800F0AFFE00F002
:10537000BDF9002000F00AFA0BB030BD1400002087
:10538000737563636573730D0A0000009803002052
:105390006C696768745F7461736B0000894A000808
:1053A00074656D705F7461736B0000006154000878
:1053B00070776D4C65645F7461736B00ED5000082D
:1053C000756C747261736F756E645F7461736B007A
:1053D0001155000872746354696D655F7461736B75
:1053E00000000000AD5100087265645F7461736B6A
:1053F000000000006D5100086576656E745F646999
:105400007370617463685F7461736B002147000897
:10541000666C617368696E675F7461736B0000002E
:105420006D47000870B50C4D04466421686800F0B3
:105430008DFD01280ED10948006844634FF4FA70CD
:1054400000F08CF96868BDE8704000231A461946E0
:1054500000F084BC70BD0000140000205003002048
:105460008CB01D4E4FF47A77FCF7ECF940BB0AA8DC
:10547000FCF748F920BB0B9801F09CF804460D4658
:105480000A9801F097F80B46024614A102A8CDE94C
:105490000045FAF7F5FE1C4C4FF0FF31E06800F0D4
:1054A00055FD02A8FBF702F882B2642302A917484F
:1054B000FEF79EFA00231A461946E06800F04EFCFB
:1054C0000A98B04202DAFCF7FDF801E0FCF702F9B5
:1054D000384600F043F9C7E70000F84154656D70A5
:1054E000657261747572653A20252E316620432CF1
:1054F0002048756D69646974793A20252E316625D6
:105500002552480D0A0000001400002098030020D6
:1055100088B000213948FDF731FF04213748FDF7F5
:105520002DFFDFF8DCA0354D00276FF002086FF08B
:105530000409286847622968C1F810802968C1F801
:1055400010900122042154465046FCF7FAFC012039
:1055500000F004F9002204212046FCF7F2FC00F0E0
:10556000F1FD323084B2002608E028680169006944
:10557000C1F34001C0F3800001B120B900F0E2FDA9
:10558000A042F2D396B32868416B806B401A01F0B9
:1055900043F81C4901F054F81B4901F051F84FF051
:1055A000FF36314601F04CF9044601F003F802469B
:1055B0000B4616A16846FAF763FE3146184EF068AE
:1055C00000F0C4FC6846FAF771FF82B264236946B2
:1055D0001448FEF70DFA00231A461946F06800F049
:1055E000BDFB1148844202DAFCF774F801E0FCF7D5
:1055F00069F84FF47A7000F0B1F89AE708030020D8
:1056000000080140BD3786350000AA436469737401
:10561000616E63653A20252E31660D0A0000000098
:105620001400002098030020CDCCCC3DD0E90132FD
:1056300001699A60D0E901235A604A68824201D127
:1056400082684A60002202610868401E086008689B
:1056500070470000044908680A688069D26A0968CE
:10566000C2F105028A6170478000002000F1080144
:105670004FF0FF32C0E90112C160016100210160F9
:10568000704700210161704730B50C68621C02D080
:1056900000F1080202E0026904E01A4653681D683E
:1056A000A542FAD953684B6099608A6051600861DD
:1056B0000168491C016030BD42684A6093688B6094
:1056C00093685960916008610168491C01607047E6
:1056D000BF2080F31188BFF34F8FBFF36F8F024855
:1056E0000168491C01607047600000200349086898
:1056F000401E086001D180F31188704760000020CF
:1057000070B500281BD0A0F108046068002816DAE4
:105710002168002913D120F00040606000F08CF96E
:10572000074D60686968084468602046FFF7FCFB25
:105730002869401C2861BDE8704000F095BE70BD2E
:10574000640000204FF0E0200021016181610249E6
:1057500041610721016170473F19010010B5020046
:1057600009D000F069F900211046FFF743FA00F074
:105770007BFE002807D104494FF080500860BFF33A
:105780004F8FBFF36F8F10BD04ED00E070B504467E
:10579000FFF79EFF214D04B92C68201DFFF746FF3F
:1057A00058B9E06A1E4A00EB800152F8211021B975
:1057B00001218140286988432861A06A18B104F159
:1057C0001800FFF733FF686A401C6862286884424B
:1057D00008D11348211DA030FFF76EFF6868401CF8
:1057E000686004E0A868401EA860FFF7D1FBFFF7DF
:1057F0007DFF2868844202D02046FFF700FB6869DD
:1058000000280AD02868844207D106494FF080500A
:105810000860BFF34F8FBFF36F8F70BD8000002013
:105820002818002004ED00E002490A6A0260C968F5
:10583000416070478000002001490120C861704725
:1058400080000020024610B506480C46016810464C
:105850001831FFF719FF2046BDE810400121FFF77E
:10586000C9B9000080000020034641F000400D4906
:1058700030B40C68A06158680C68E06184680D68F9
:105880002C620C68856818346C600C68183484606D
:10589000086883621868401C186030BC01211046FB
:1058A000FFF7A8B98000002070B5040044D0606CF8
:1058B000884200D30146E06A88423DD0A26C012AAA
:1058C0003AD1E162A269002A02DBC1F10501A161BE
:1058D0001A4D00EB8000616905EB800081422BD1FD
:1058E000201DFFF7A3FE1649012230B994F82C00C1
:1058F0000B6902FA00F083430B61E06A0B69824096
:105900001A430A6100EB800005EB80004068A0604C
:105910008168E1608268211D51608160E06A00EB6E
:10592000800005EB80006061E06A00EB800055F8C4
:105930002010491C45F8201070BD000028180020D8
:105940008000002070B541F000410160D0E90143C2
:10595000D0E90312A360D0E9013463605368834245
:1059600001D183685360002303611068401E1060FA
:10597000D1E902424869A260D1E902246260446828
:105980000A1D944201D1CC6844604B6103685B1EE0
:105990000360134BC86A01241E6904FA00F53543FD
:1059A0001D61104D00EB800005EB800040688860B1
:1059B0008668CE60866872608260C86A00EB80008C
:1059C00005EB80024A6155F82020521C45F8202042
:1059D000C86A1968C96A884200D9DC6170BD0000D4
:1059E00080000020281800207CB50F480025CDE954
:1059F00000502B4680220DA10E4800F067FB0A4C98
:105A00002C3C01280ED1BF2080F31188BFF34F8FAB
:105A1000BFF36F8F4FF0FF30A06201206061E5603F
:105A200000F0DEF8206B7CBDAC00002049444C4502
:105A300000000000594E00080248416B491C4163B8
:105A400070470000800000200E4A506B10B101200A
:105A5000D06170470020D06110690B49B0FA80F026
:105A6000C0F11F0000EB800001EB800000F1080393
:105A7000416849684160994201D149684160C868FC
:105A800010607047800000202818002070B50E4676
:105A90000446FFF71DFE256825EA06002060FFF793
:105AA00025FE284670BD10B51820FFF7C7FA040080
:105AB00004D000202060201DFFF7D8FD204610BD37
:105AC0002DE9F041884604460025061D00F10C072B
:105AD000FFF7B2FF2168F06841EA0801216017E092
